:0300000002000EED
:10000B00020129C200D2A975890412010E12010E38
:10001B001200B6312EF8312EF9112880F6E8C449BA
:0F002B00F8742598F58CD2AFD28CD2B520000294
:0F003A0080FB1200E074001200F0744612010007
:0F0049007445120100745212010074521201002A
:0F0058007441120100744D120100744512010031
:0F006700744E1201007454120100744112010012
:0F00760074201201007450120100744F12010027
:0F008500745312010074491201007443120100F8
:0F0094007449120100744F120100744E120100E2
:0F00A300744112010074441201007441120100F3
:1000B200C2B5011EC2B1D2B0C2B274383117C2B0D9
:1000C20012010ED2B0C2B2740E3117C2B012010EBA
:1000D200D2B0C2B274063117C2B012010E22C2B13E
:1000E200D2B0C2B274013117C2B012010E22C2B133
:1000F200D2B0C2B224803117C2B012010E22C2B1F4
:10010200D2B0D2B23117C2B012010E227F7A7E066D
:10011200DEFEDFFA22FD540FF5A0ED54F053800FFE
:0F0122004280D2A6D2A722C2AFD200327590FF80
:10013100C29430903030913F30924E75A0FFC2A5ED
:0F01410030902830913730924630934F75A0FFA1
:0E015000C29630901D30912C30923B75A0FF6E
:10015E0020020280CBC202227400D20280C574013A
:10016E00D20280CD7402D20280D87403D20280B340
:10017E007404D20280BB7405D20280C67406D20209
:10018E0080A17407D20280A97408D20280B47409C7
:04019E00D202809D6C
:00000001FF
