:02000000801B63
:10001B00803074007A0075A0FFC2D57590FF787F91
:0F002B001141E59044F0B4FF0280F5A990E590F3
:10003A001150F4F5A080E5E8F5900330E302F822C8
:10004A00787F22D2D532BA04028023BA03028019F9
:0F005A00BA0202800FBA01028005B4EB180A2225
:0F006900B47E130A22B47D0E0A22B4BE090A2205
:10007800B4B7050A118F22227A0080012275A000E8
:0F00880011B820D59080F675A0FE11B875A0FDB7
:0F00970011B875A0FB11B875A0F711B875A0EFDF
:0F00A60011B875A0DF11B875A0BF11B875A07F94
:0800B50011B8227C1800DCFEEA
:00000001FF
