:100000008000753000780079009000A0E89308F334
:10001000090ABA12F4C3908000E0B40108C3113693
:100020007580FF80F1B40305C3115980E9B480E6FF
:10003000C3116EC380E090800074FFF0118214F051
:0F004000908000E0B40111C3E0F4F82348F4F01D
:10004F0011823087E2118280E8227900908000E0EF
:0F005F00B4030BE3F4F0091182B912F380EC2221
:10006E0078FF908000E0B48007E8F018118280F5E8
:0F007E007580FF227B037AD2790C788200D8FE3E
:10008D00D9F9DAF5DBF1790678BA00D8FED9F9009D
:10009D00000022FFFEFDFBF7EFDFBF7F0001020432
:0500AD00081020408056
:00000001FF
