:0F0000008000117C118F7400119B900070E493AD
:10000F00B40002800511A8A380F411E211F9744025
:10001F00119BE9B4003A75302BE820E02975353093
:10002F00C31311B3E53011A8E53111A8E53211A8BA
:10003F00E53311A8742E11A8E53511A874DF11A8A6
:10004F00744311A880C675353580D5753535800A4E
:0F005F0075305FE820E0F4753530D313F42401D9
:10006E0080C154454D504552415455524100C2B382
:10007E00C2B4D2B275A038C2B2D2B275A00EC2B29C
:0F008E0022C2B3C2B4D2B275A001C2B222C2B3B1
:0F009D00C2B4D2B22480F5A0C2B222C2B3D2B490
:1000AC00D2B2F5A0C2B222B464004009946411C863
:1000BC007B0111D22211C87B0011D22275F00A8467
:1000CC00FAA9F0C44922EB2430F531EA2430F53298
:0F00DC00E92430F53322740A11EB74EE11EB2294
:1000EB00C290D2907F081392B0311DDFF92274AA0F
:0F00FB0011EB3109F89200A92074EE11EB22E409
:0F010A00D2B0D2907F09D2B1C2B1A2B0D2B1139C
:0B011900DFF53322D2B1C2B1D2B12217
:00000001FF
