:0200000080047A
:0F00030002008ED2B63134C2B6111080F6C2B7E9
:0E001200E531111DD2B7E530111D22B40004F6
:0E00200075A07E22B4010475A03022B4020443
:0E002E0075A06D22B4030475A07922B40404F9
:0E003C0075A03322B4050475A05B22B406043F
:0E004A0075A05F22B4070475A07022B40804EC
:0E00580075A07F22B4090475A07B22B40A04AF
:0E00660075A07722B40B0475A01F22B40C0401
:0E00740075A04E22B40D0475A03D22B40E04FA
:0F00820075A04F22B4040475A0472222E590C454
:0F009100540FB4000775310075300032B4010709
:1000A00075310075300132B40207753100753002C8
:0E00B00032B4030775310075300332B4040713
:1000BE0075310075300432B40507753100753005A1
:0E00CE0032B4060775310075300632B40707EC
:1000DC0075310075300732B408077531007530087A
:0E00EC0032B4090775310075300932B40A07C5
:1000FA0075310175300032B40B0775310175300165
:0E010A0032B40C0775310175300232B40D07A6
:1001180075310175300332B40E077531017530043D
:0C01280032B40F0775310175300532321A
:00000001FF
