:060000000200340200FFC3
:100031000200FCD2A8D2AAD288758906D28CD2AF8E
:1000410020000280FBD2B7115330000280F9C2B701
:1000510080EE75A00074001188E58A117EE9D2A0B6
:100061001188C2A0EAD2A11188C2A1E58A117EE954
:10007100D2A41188C2A4EAD2A51188C2A575F00A3A
:1000810084FAA9F0C4492275A000B4000475A07EC9
:0F00910022B4010475A03022B4020475A06D22C0
:0E00A000B4030475A07922B4040475A03322C1
:0E00AE00B4050475A05B22B4060475A05F22A1
:0E00BC00B4070475A07022B4080475A07F225A
:0E00CA00B4090475A07B22B40A0475A0772245
:0E00D800B40B0475A01F22B40C0475A04E22B8
:0E00E600B40D0475A03D22B40E0475A04F2287
:0E00F400B4040475A0472222D20032C20032AA
:00000001FF
